{
  "address": "0xBC7D4f17AC2f61Fb7a508318526FcAAb1137B80B",
  "abi": [
    {
      "inputs": [
        {
          "internalType": "address payable",
          "name": "_destinatarioPrincipal",
          "type": "address"
        }
      ],
      "stateMutability": "nonpayable",
      "type": "constructor"
    },
    {
      "anonymous": false,
      "inputs": [
        {
          "indexed": true,
          "internalType": "address",
          "name": "previousOwner",
          "type": "address"
        },
        {
          "indexed": true,
          "internalType": "address",
          "name": "newOwner",
          "type": "address"
        }
      ],
      "name": "OwnershipTransferred",
      "type": "event"
    },
    {
      "inputs": [],
      "name": "destinatarioPrincipal",
      "outputs": [
        {
          "internalType": "address payable",
          "name": "",
          "type": "address"
        }
      ],
      "stateMutability": "view",
      "type": "function"
    },
    {
      "inputs": [],
      "name": "destinatarioSecundario",
      "outputs": [
        {
          "internalType": "address payable",
          "name": "",
          "type": "address"
        }
      ],
      "stateMutability": "view",
      "type": "function"
    },
    {
      "inputs": [],
      "name": "efetuarPagamento",
      "outputs": [],
      "stateMutability": "payable",
      "type": "function"
    },
    {
      "inputs": [],
      "name": "owner",
      "outputs": [
        {
          "internalType": "address",
          "name": "",
          "type": "address"
        }
      ],
      "stateMutability": "view",
      "type": "function"
    },
    {
      "inputs": [],
      "name": "renounceOwnership",
      "outputs": [],
      "stateMutability": "nonpayable",
      "type": "function"
    },
    {
      "inputs": [
        {
          "internalType": "address",
          "name": "newOwner",
          "type": "address"
        }
      ],
      "name": "transferOwnership",
      "outputs": [],
      "stateMutability": "nonpayable",
      "type": "function"
    }
  ],
  "transactionHash": "0xf5f7d4e72961c9044cbffad3c33d067f69498a9bcb4b0c8bfc299e38d848cb8b",
  "args": [
    "0x1eEA0E03989b53A0d35bA9543070A324F3bF3f6e"
  ],
  "numDeployments": 3,
  "solcInputHash": "eda8856378691c60ea14b2699bd506fe",
  "bytecode": "0x608060405234801561001057600080fd5b5060405161053038038061053083398101604081905261002f916100ca565b6100383361007a565b600180546001600160a01b039092166001600160a01b03199283161790556002805490911673ee46a2583e5af325d682814642cecd8673c084801790556100fa565b600080546001600160a01b038381166001600160a01b0319831681178455604051919092169283917f8be0079c531659141344cd1fd0a4f28419497f9722a3daafe3b4186f6b6457e09190a35050565b6000602082840312156100dc57600080fd5b81516001600160a01b03811681146100f357600080fd5b9392505050565b610427806101096000396000f3fe6080604052600436106100555760003560e01c80630b08dcae1461005a578063715018a61461009657806379f2f01a146100ad5780638da5cb5b146100cd578063e5211c14146100eb578063f2fde38b146100f3575b600080fd5b34801561006657600080fd5b5060025461007a906001600160a01b031681565b6040516001600160a01b03909116815260200160405180910390f35b3480156100a257600080fd5b506100ab610113565b005b3480156100b957600080fd5b5060015461007a906001600160a01b031681565b3480156100d957600080fd5b506000546001600160a01b031661007a565b6100ab610127565b3480156100ff57600080fd5b506100ab61010e36600461037a565b610236565b61011b6102af565b6101256000610309565b565b6000341161018f5760405162461bcd60e51b815260206004820152602a60248201527f56616c6f7220646f20706167616d656e746f206465766520736572206d61696f6044820152697220717565207a65726f60b01b60648201526084015b60405180910390fd5b60006101a760646101a134605a610359565b9061036e565b905060006101bb60646101a134600a610359565b6001546040519192506001600160a01b03169083156108fc029084906000818181858888f193505050501580156101f6573d6000803e3d6000fd5b506002546040516001600160a01b039091169082156108fc029083906000818181858888f19350505050158015610231573d6000803e3d6000fd5b505050565b61023e6102af565b6001600160a01b0381166102a35760405162461bcd60e51b815260206004820152602660248201527f4f776e61626c653a206e6577206f776e657220697320746865207a65726f206160448201526564647265737360d01b6064820152608401610186565b6102ac81610309565b50565b6000546001600160a01b031633146101255760405162461bcd60e51b815260206004820181905260248201527f4f776e61626c653a2063616c6c6572206973206e6f7420746865206f776e65726044820152606401610186565b600080546001600160a01b038381166001600160a01b0319831681178455604051919092169283917f8be0079c531659141344cd1fd0a4f28419497f9722a3daafe3b4186f6b6457e09190a35050565b600061036582846103aa565b90505b92915050565b600061036582846103cf565b60006020828403121561038c57600080fd5b81356001600160a01b03811681146103a357600080fd5b9392505050565b808202811582820484141761036857634e487b7160e01b600052601160045260246000fd5b6000826103ec57634e487b7160e01b600052601260045260246000fd5b50049056fea2646970667358221220cf5e76d6f64728a87878acefec64d6c237ff6a976f14f1df4f67593468e1de3b64736f6c63430008110033",
  "devdoc": {
    "kind": "dev",
    "methods": {
      "owner()": {
        "details": "Returns the address of the current owner."
      },
      "renounceOwnership()": {
        "details": "Leaves the contract without owner. It will not be possible to call `onlyOwner` functions. Can only be called by the current owner. NOTE: Renouncing ownership will leave the contract without an owner, thereby disabling any functionality that is only available to the owner."
      },
      "transferOwnership(address)": {
        "details": "Transfers ownership of the contract to a new account (`newOwner`). Can only be called by the current owner."
      }
    },
    "version": 1
  },
  "userdoc": {
    "kind": "user",
    "methods": {},
    "version": 1
  },
  "storageLayout": {
    "storage": [
      {
        "astId": 7,
        "contract": "contracts/YourContract.sol:YourContract",
        "label": "_owner",
        "offset": 0,
        "slot": "0",
        "type": "t_address"
      },
      {
        "astId": 457,
        "contract": "contracts/YourContract.sol:YourContract",
        "label": "destinatarioPrincipal",
        "offset": 0,
        "slot": "1",
        "type": "t_address_payable"
      },
      {
        "astId": 459,
        "contract": "contracts/YourContract.sol:YourContract",
        "label": "destinatarioSecundario",
        "offset": 0,
        "slot": "2",
        "type": "t_address_payable"
      }
    ],
    "types": {
      "t_address": {
        "encoding": "inplace",
        "label": "address",
        "numberOfBytes": "20"
      },
      "t_address_payable": {
        "encoding": "inplace",
        "label": "address payable",
        "numberOfBytes": "20"
      }
    }
  }
}